{
  "contractName": "AggregatedFlashloans",
  "abi": [
    {
      "inputs": [],
      "payable": false,
      "stateMutability": "nonpayable",
      "type": "constructor"
    },
    {
      "payable": true,
      "stateMutability": "payable",
      "type": "fallback"
    },
    {
      "constant": false,
      "inputs": [],
      "name": "invoke",
      "outputs": [],
      "payable": true,
      "stateMutability": "payable",
      "type": "function"
    },
    {
      "constant": false,
      "inputs": [
        {
          "internalType": "bytes",
          "name": "data",
          "type": "bytes"
        }
      ],
      "name": "execute",
      "outputs": [],
      "payable": true,
      "stateMutability": "payable",
      "type": "function"
    },
    {
      "constant": false,
      "inputs": [],
      "name": "WithdrawBalance",
      "outputs": [],
      "payable": true,
      "stateMutability": "payable",
      "type": "function"
    }
  ],
  "bytecode": "0x6080604052606460015534801561001557600080fd5b506001806000806101000a81548173ffffffffffffffffffffffffffffffffffffffff021916908373ffffffffffffffffffffffffffffffffffffffff1602179055505033600260006101000a81548173ffffffffffffffffffffffffffffffffffffffff021916908373ffffffffffffffffffffffffffffffffffffffff16021790555073234a76352e816c48098f20f830a21c820085b902600360006101000a81548173ffffffffffffffffffffffffffffffffffffffff021916908373ffffffffffffffffffffffffffffffffffffffff160217905550610c47806100fe6000396000f3fe6080604052600436106100345760003560e01c806309c5eabe14610036578063a39d716d146100af578063cab7f521146100b9575b005b6100ad6004803603602081101561004c57600080fd5b810190808035906020019064010000000081111561006957600080fd5b82018360208201111561007b57600080fd5b8035906020019184600183028401116401000000008311171561009d57600080fd5b90919293919293905050506100c3565b005b6100b76100cf565b005b6100c1610172565b005b6100cb610306565b5050565b600260009054906101000a900473ffffffffffffffffffffffffffffffffffffffff1673ffffffffffffffffffffffffffffffffffffffff163373ffffffffffffffffffffffffffffffffffffffff161461012957600080fd5b3373ffffffffffffffffffffffffffffffffffffffff166108fc479081150290604051600060405180830381858888f1935050505015801561016f573d6000803e3d6000fd5b50565b600030905060606040518060200160405280600081525090506000600190506000670de0b6b3a76400009050600360009054906101000a900473ffffffffffffffffffffffffffffffffffffffff1673ffffffffffffffffffffffffffffffffffffffff16630e02e6a3858585856040518563ffffffff1660e01b8152600401808573ffffffffffffffffffffffffffffffffffffffff1673ffffffffffffffffffffffffffffffffffffffff168152602001806020018473ffffffffffffffffffffffffffffffffffffffff1673ffffffffffffffffffffffffffffffffffffffff168152602001838152602001828103825285818151815260200191508051906020019080838360005b8381101561029957808201518184015260208101905061027e565b50505050905090810190601f1680156102c65780820380516001836020036101000a031916815260200191505b5095505050505050600060405180830381600087803b1580156102e857600080fd5b505af11580156102fc573d6000803e3d6000fd5b5050505050505050565b6000610356610313610424565b61034861271061033a610324610424565b61032c6104ac565b61053490919063ffffffff16565b61057e90919063ffffffff16565b61060490919063ffffffff16565b90506001548111156103b3576040517f08c379a000000000000000000000000000000000000000000000000000000000815260040180806020018281038252602e815260200180610bc4602e913960400191505060405180910390fd5b6103cc6103be61064e565b336103c76104ac565b6106d6565b610421576040517f08c379a0000000000000000000000000000000000000000000000000000000008152600401808060200182810382526024815260200180610b766024913960400191505060405180910390fd5b50565b60003373ffffffffffffffffffffffffffffffffffffffff1663ff69ac366040518163ffffffff1660e01b815260040160206040518083038186803b15801561046c57600080fd5b505afa158015610480573d6000803e3d6000fd5b505050506040513d602081101561049657600080fd5b8101908080519060200190929190505050905090565b60003373ffffffffffffffffffffffffffffffffffffffff16636f27e9d86040518163ffffffff1660e01b815260040160206040518083038186803b1580156104f457600080fd5b505afa158015610508573d6000803e3d6000fd5b505050506040513d602081101561051e57600080fd5b8101908080519060200190929190505050905090565b600061057683836040518060400160405280601e81526020017f536166654d6174683a207375627472616374696f6e206f766572666c6f77000081525061080c565b905092915050565b60008083141561059157600090506105fe565b60008284029050828482816105a257fe5b04146105f9576040517f08c379a0000000000000000000000000000000000000000000000000000000008152600401808060200182810382526021815260200180610bf26021913960400191505060405180910390fd5b809150505b92915050565b600061064683836040518060400160405280601a81526020017f536166654d6174683a206469766973696f6e206279207a65726f0000000000008152506108cc565b905092915050565b60003373ffffffffffffffffffffffffffffffffffffffff166311eefd5d6040518163ffffffff1660e01b815260040160206040518083038186803b15801561069657600080fd5b505afa1580156106aa573d6000803e3d6000fd5b505050506040513d60208110156106c057600080fd5b8101908080519060200190929190505050905090565b60008060009054906101000a900473ffffffffffffffffffffffffffffffffffffffff1673ffffffffffffffffffffffffffffffffffffffff168473ffffffffffffffffffffffffffffffffffffffff161415610740576107378383610992565b60019050610805565b8373ffffffffffffffffffffffffffffffffffffffff1663a9059cbb84846040518363ffffffff1660e01b8152600401808373ffffffffffffffffffffffffffffffffffffffff1673ffffffffffffffffffffffffffffffffffffffff16815260200182815260200192505050602060405180830381600087803b1580156107c757600080fd5b505af11580156107db573d6000803e3d6000fd5b505050506040513d60208110156107f157600080fd5b810190808051906020019092919050505090505b9392505050565b60008383111582906108b9576040517f08c379a00000000000000000000000000000000000000000000000000000000081526004018080602001828103825283818151815260200191508051906020019080838360005b8381101561087e578082015181840152602081019050610863565b50505050905090810190601f1680156108ab5780820380516001836020036101000a031916815260200191505b509250505060405180910390fd5b5060008385039050809150509392505050565b60008083118290610978576040517f08c379a00000000000000000000000000000000000000000000000000000000081526004018080602001828103825283818151815260200191508051906020019080838360005b8381101561093d578082015181840152602081019050610922565b50505050905090810190601f16801561096a5780820380516001836020036101000a031916815260200191505b509250505060405180910390fd5b50600083858161098457fe5b049050809150509392505050565b804710156109eb576040517f08c379a000000000000000000000000000000000000000000000000000000000815260040180806020018281038252602a815260200180610b9a602a913960400191505060405180910390fd5b610a05828260405180602001604052806000815250610a09565b5050565b600060608473ffffffffffffffffffffffffffffffffffffffff1684846040518082805190602001908083835b60208310610a595780518252602082019150602081019050602083039250610a36565b6001836020036101000a03801982511681845116808217855250505050505090500191505060006040518083038185875af1925050503d8060008114610abb576040519150601f19603f3d011682016040523d82523d6000602084013e610ac0565b606091505b5091509150818190610b6d576040517f08c379a00000000000000000000000000000000000000000000000000000000081526004018080602001828103825283818151815260200191508051906020019080838360005b83811015610b32578082015181840152602081019050610b17565b50505050905090810190601f168015610b5f5780820380516001836020036101000a031916815260200191505b509250505060405180910390fd5b50505050505056fe4b6f6c6c61746572616c496e766f6b61626c653a206661696c656420746f20726570617945787465726e616c43616c6c65723a20696e73756666696369656e742065746865722062616c616e63654b6f6c6c61746572616c496e766f6b61626c653a2072657061796d656e742072657761726420746f6f2068696768536166654d6174683a206d756c7469706c69636174696f6e206f766572666c6f77a265627a7a72315820e6a44a0f94bd4ddcfade45b3465f5a886e4a26ca7edd9a0f891ef5d9f25cf26264736f6c63430005100032",
  "source": "pragma solidity >= 0.5.0 < 0.7.0;\nimport \"@kollateral/contracts/invoke/IInvoker.sol\";\nimport \"@kollateral/contracts/invoke/KollateralInvokable.sol\";\nimport \"@openzeppelin/contracts/ownership/Ownable.sol\";\n\ncontract AggregatedFlashloans is KollateralInvokable {\n\n  address owner; // contract owner\n  address internal INVOKER_ROPSTEN;\n\n  // initialize deployment parameters\n  constructor() public{\n      owner = msg.sender;\n       INVOKER_ROPSTEN = address(0x234A76352e816c48098F20F830A21c820085b902); //Kollateral inovker on Ropsten\n  }\n\n  // only the contract owner can call fund\n  modifier onlyOwner() {\n      require(msg.sender == owner);\n      _;\n  }\n\n  // initializes the flash loan aggregation parameters\n  function invoke() external payable {\n    address to = address(this);\n    bytes memory data = \"\";\n    address tokenAddress = address(0x0000000000000000000000000000000000000001); //Ropsten ETH\n    uint256 tokenAmount = 1e18; // i.e. 1 ETH worth\n    IInvoker(INVOKER_ROPSTEN).invoke(to, data, tokenAddress, tokenAmount);\n  }\n\n  /**\n    Mid-flash loan aggregation logic i.e. what you do with\n    the temporarily acquired flash liquidity from DyDx and Aave\n  */\n  function execute(bytes calldata data) external payable {\n\n    // ***Step 1: Arbitrage or liquidation or whatever logic goes here\n\n    repay(); // ***Step 2: Repay the aggregated flash loan + above fees\n    /* Remember to factor in:\n        + 6bps in Kollateral aggregation fee\n        + 9bps in native Aave flash loan fee\n        + 3 Wei in native DyDx floan loan fee\n    */\n\n  }\n\n  /**\n    ***Step 3: sweep entire balance on the contract back to contract owner\n  */\n  function WithdrawBalance() public payable onlyOwner {\n      msg.sender.transfer(address(this).balance); // withdraw all ETH\n  }\n\n}\n",
  "sourcePath": "/home/fifi/dev/aggregated-flashloans/contracts/AggregatedFlashloans.sol",
  "compiler": {
    "name": "solc",
    "version": "0.5.16+commit.9c3226ce.Emscripten.clang"
  },
  "schemaVersion": "3.2.3",
  "updatedAt": "2020-09-23T05:39:50.624Z",
  "networkType": "ethereum",
  "devdoc": {
    "methods": {}
  },
  "userdoc": {
    "methods": {
      "WithdrawBalance()": {
        "notice": "***Step 3: sweep entire balance on the contract back to contract owner"
      },
      "execute(bytes)": {
        "notice": "Mid-flash loan aggregation logic i.e. what you do with the temporarily acquired flash liquidity from DyDx and Aave"
      }
    }
  }
}